:100000000C9464000C941E110C944B110C948C00F5
:100010000C948C000C948C000C948C000C948C0030
:100020000C948C000C948C000C948C000C948C0020
:100030000C948C000C948C000C948C000C948C0010
:100040000C94CC050C948C000C9443070C9465091B
:100050000C942B090C948C000C948C000C948C0048
:100060000C948C000C948C00A807B507CC07F407FF
:1000700048089308B60801030406000000000000C9
:1000800000070002000000000000400204081020E9
:10009000018001020408102001020408102004025B
:1000A000020202020404020404040404030303031E
:1000B000030300000000250028002B0000000000C2
:1000C000240027002A00B10911241FBECFEFD8E079
:1000D000DEBFCDBF11E0A0E0B1E0E0E4FAE202C093
:1000E00005900D92A638B107D9F723E0A6E8B1E054
:1000F00001C01D92AD3FB207E1F710E0C8ECD0E0BF
:1001000004C02297FE010E946C14C63CD107C9F7B7
:100110000E940E110C941E150C940000EF92FF9299
:100120000F931F9382EC91E00E941D0A81EEE82E4E
:1001300087E0F82E05E010E02CE030E040E050E0F1
:1001400061E170E08BE090E00E94A80510928601CA
:100150001F910F91FF90EF9008954F925F926F92D1
:100160007F928F929F92AF92BF92CF92DF92EF9247
:10017000FF920F931F93CF93DF93CDB7DEB7C45594
:10018000D1090FB6F894DEBF0FBECDBF60E18BEA98
:1001900091E00E94A6068BEA91E00E94AC062F96A1
:1001A0002FAF2F9760963FAF609761964FAF6197E3
:1001B00062965FAF629763966FAF639764967FAF07
:1001C000649760968EAC9FAC60976296AEACBFAC05
:1001D000629764960EAD1FAD64976EE071E0CE013C
:1001E000895B9F4F0E94DC0F6EE071E0CE01805C66
:1001F0009F4F0E94DC0F0E9417052B013C010E94BB
:1002000017056B017C01C301B2010E9411044AE091
:10021000BC01CE0101960E942C10C301B2010E94C4
:100220000B044AE0BC01CE0108960E942C10C301C9
:10023000B2010E9405044AE0BC01CE010F960E9463
:100240002C10C301B2010E9423044AE0BC01CE017C
:1002500046960E942C10C301B2010E9417044AE086
:10026000BC01CE0184960E942C10C301B2010E94F1
:100270001D044AE0BC01CE018B960E942C10BE01E9
:10028000655D7F4FCE014D960E940A10BE016C5DE8
:100290007F4FCE014D960E94B710BE016A5E7F4F20
:1002A0000E94B710BE01615F7F4F0E94B710BE0170
:1002B000685F7F4F0E94B710BE016F5F7F4F0E9443
:1002C000B710BC01CE01C9960E940A10CE014D960E
:1002D0000E946E0FCE018B960E946E0FCE01849607
:1002E0000E946E0FCE0146960E946E0FCE010F96B1
:1002F0000E946E0FCE0108960E946E0FCE010196ED
:100300000E946E0FC701B6010E9411044AE0BC01B1
:10031000CE0101960E942C10C701B6010E940B0469
:100320004AE0BC01CE0108960E942C10C701B6011C
:100330000E9405044AE0BC01CE010F960E942C10D9
:10034000C701B6010E9423044AE0BC01CE014696D3
:100350000E942C10C701B6010E9417044AE0BC019C
:10036000CE0184960E942C10C701B6010E941D0484
:100370004AE0BC01CE018B960E942C10BE01655D47
:100380007F4FCE014D960E940A10BE016C5D7F4FDB
:10039000CE014D960E94B710BE016A5E7F4F0E944B
:1003A000B710BE01615F7F4F0E94B710BE01685F4A
:1003B0007F4F0E94B710BE016F5F7F4F0E94B71042
:1003C000BC01CE01C2960E940A10CE014D960E9439
:1003D0006E0FCE018B960E946E0FCE0184960E9406
:1003E0006E0FCE0146960E946E0FCE010F960E94B0
:1003F0006E0FCE0108960E946E0FCE0101960E94EC
:100400006E0FCE01C9960E940311CE01C2960E94C2
:100410000311BE01695B7F4FCE0101960E940A1055
:100420006BE071E0CE0101960E94CA10B4010E94F7
:10043000E4106FE071E00E94CA10B5010E94E41060
:1004400064E171E00E94CA10B8010E94E410BC018E
:10045000CE01895B9F4F0E94F30FCE0101960E944F
:100460006E0FBE01695B7F4F82EC91E00E94580FD6
:10047000C40197FE04C08827992788199909833CED
:100480009140A4F4C501B7FE04C0882799278A19B2
:100490009B09833C914054F4C80117FF04C088278E
:1004A0009927801B910B833C914074F181E08093EC
:1004B000860169E171E0CE01805C9F4F0E941410BB
:1004C000BE01695B7F4F82EC91E00E94580FBE0134
:1004D000605C7F4F82EC91E00E94580F61E271E016
:1004E000CE0101960E94DC0FBE01675C7F4FCE01FA
:1004F00001960E94B710BC0182EC91E00E94580F57
:10050000CE0101960E946E0F83EA881A8EEF980A38
:100510002BEB821622E0920608F050C083EAA81A5C
:100520008EEFB80A2BEBA21622E0B20608F046C006
:10053000035A1E4F0B3B124008F040C080918601C9
:100540008823E1F11092860168E271E0CE01805CBF
:100550009F4F0E941410BE01605C7F4F82EC91E0BF
:100560000E94580F65E371E0CE0101960E94DC0FF6
:10057000BE016E5C7F4FCE0101960E94B710BC0198
:1005800082EC91E00E94580FCE0101960E946E0FFE
:100590006CE371E0CE0101960E94DC0FBE016E5C3F
:1005A0007F4FCE0101960E94B710BC0182EC91E012
:1005B0000E94580FCE0101960E946E0FCE01C29686
:1005C0000E946E0FCE01C9960E946E0FCE01805C14
:1005D0009F4F0E946E0FCE01895B9F4F0E946E0F4E
:1005E000CC5ADF4F0FB6F894DEBF0FBECDBFDF9100
:1005F000CF911F910F91FF90EF90DF90CF90BF9020
:10060000AF909F908F907F906F905F904F900895E4
:100610006F927F928F929F92AF92BF92CF92DF9212
:10062000EF92FF920F931F93CF93DF93EA012CE396
:10063000C22ED12CE12CF12CA70196010E94481466
:100640006883CA01B901A70196010E944814698311
:10065000CA01B90128E130E040E050E00E944814AE
:1006600049015A016A83CA01B9016C5F7F4F8F4FFC
:100670009F4F27E030E040E050E00E9448146F5F59
:100680006B8300E010E0980140E054E6652E712C89
:1006900060E9C62EDD24D394E42FF0E0EE54F84F49
:1006A0007F0183E0E822FF24E114F10489F4CF0103
:1006B000B3010E943414892B29F08EE691E0A0E06A
:1006C000B0E00AC0CF01B6010E943414892BA9F30F
:1006D0008DE691E0A0E0B0E0080F191F2A1F3B1F34
:1006E000D901C801AA27BB2788169906AA06BB0606
:1006F00010F04F5FD1CF4E83E114F10499F4CF0194
:1007000064E670E00E943414892B29F08EE691E0B3
:10071000A0E0B0E00BC0CF0160E971E00E943414AA
:10072000892BA1F38DE691E0A0E0B0E0081B190B46
:100730002A0B3B0B801A910AA20AB30ACF0164E686
:1007400070E00E9434149C01CF0160E971E00E94C6
:100750003414E5E4F1E0A0E0A13059F4E114F1042F
:1007600051F42115310511F04DE106C00097E1F378
:1007700002C0408101C04CE150E060E070E08416AE
:100780009506A606B70640F0841A950AA60AB70A87
:10079000AF5F3196AC3001F7AF5FAD8383948C824D
:1007A000DF91CF911F910F91FF90EF90DF90CF904D
:1007B000BF90AF909F908F907F906F900895CF9251
:1007C000DF92EF92FF926B017C01809197019091F3
:1007D0009801A0919901B0919A01C816D906EA062C
:1007E000FB0671F04BE951E0C701B6010E94080316
:1007F000C0929701D0929801E0929901F0929A01EB
:10080000FF90EF90DF90CF9008950E94DF038091DA
:100810009D0190E008950E94DF0380919C0190E08B
:1008200008950E94DF0380919B0190E008950E944B
:10083000DF0380919F0190E008950E94DF03809183
:10084000A00190E008950E94DF038091A10190E053
:100850008E54984F08956F927F928F929F92AF928D
:10086000BF92CF92DF92EF92FF920F931F93CF939D
:10087000DF93FC01C680AC2DB0E020E833E341EE0D
:1008800051E00E947F144B015C0122EB37E06D01C7
:10089000C4E6D0E000E911E0C901825B97408C1505
:1008A0009D05DCF4C90183709927892B99F4C9014E
:1008B000BE010E943414892B31F4C901B8010E9491
:1008C0003414892B39F480E8880E81E5981E81E084
:1008D000A81EB11C2F5F3F4FDFCF6580712C8EE4C7
:1008E000C81A88EFD80AC60164E670E00E94341482
:1008F0008C01C60160E971E00E9434147C01C1E002
:10090000D0E083E0C822DD24C615D7052CF5C2301F
:10091000D10589F4C114D10471F40115110519F43C
:10092000E114F10441F480E8880E8BE3981E86E21E
:10093000A81EB11C0FC0DE01AC5BBE4FAC91B0E095
:1009400020E831E541E050E00E947F14860E971EBA
:10095000A81EB91E2196D8CF4181228130E0A0E1A6
:10096000BEE00E9470146B017C01242F30E0ACE3E8
:10097000B0E00E947014C60ED71EE81EF91E8081DA
:10098000C80ED11CE11CF11CA481B0E0119720E835
:1009900031E541E050E00E948A14C60ED71EE81EE1
:1009A000F91EC80CD91CEA1CFB1CC701B601DF915B
:1009B000CF911F910F91FF90EF90DF90CF90BF905C
:1009C000AF909F908F907F906F9008950F931F939B
:1009D0006093930170939401809395019093960195
:1009E0000091000110910101209102013091030159
:1009F000060F171F281F391F00938B0110938C01BE
:100A000020938D0130938E0182E090E090938A01D3
:100A1000809389010E94160660938F017093900164
:100A200080939101909392011F910F910895CF921D
:100A3000DF92EF92FF920F931F930E941606C090D1
:100A40008F01D0909001E0909101F09092016C198B
:100A50007D098E099F0900919301109194012091C5
:100A6000950130919601683E734081059105D8F05B
:100A70000F5F1F4F2F4F3F4F00939301109394012F
:100A8000209395013093960148EEC40E43E0D41EA6
:100A9000E11CF11CC0928F01D0929001E092910173
:100AA000F0929201CACF80918B0190918C01A0911C
:100AB0008D01B0918E01081719072A073B07C8F16D
:100AC000E0918701F0918801309799F109956115BE
:100AD00071058105910519F00E94E6042AC08091F4
:100AE000000190910101A0910201B0910301409198
:100AF0009301509194016091950170919601840F3A
:100B0000951FA61FB71F80938B0190938C01A09314
:100B10008D01B0938E0181E090E0209189013091A8
:100B20008A01232B11F480E090E090938A01809356
:100B30008901609193017091940180919501909148
:100B400096011F910F91FF90EF90DF90CF90089545
:100B5000EF92FF920F9394E6E916F1042CF092EBDA
:100B6000E91A97E0F90A03C09EE1E90EF11CE09250
:100B7000A1010093A00120939F0180939D016093A8
:100B80009C0140939B018BE991E00E942B040F9103
:100B9000FF90EF900C94E6041F920F920FB60F9205
:100BA00011242F933F938F939F93AF93BF93809183
:100BB000A3019091A401A091A501B091A60130914B
:100BC000A20126E0230F2D3720F40296A11DB11DAE
:100BD00005C029E8230F0396A11DB11D2093A20192
:100BE0008093A3019093A401A093A501B093A601C3
:100BF0008091A7019091A801A091A901B091AA01AB
:100C00000196A11DB11D8093A7019093A801A09307
:100C1000A901B093AA01BF91AF919F918F913F918C
:100C20002F910F900FBE0F901F9018952FB7F8942B
:100C30006091A3017091A4018091A5019091A601FA
:100C40002FBF08953FB7F8948091A7019091A80114
:100C5000A091A901B091AA0126B5A89B05C02F3F7C
:100C600019F00196A11DB11D3FBF6627782F892F6E
:100C70009A2F620F711D811D911D43E0660F771F32
:100C8000881F991F4A95D1F70895CF92DF92EF926E
:100C9000FF92CF93DF936B017C010E942206EB0150
:100CA000C114D104E104F10479F00E9422066C1B06
:100CB0007D0B683E7340A0F381E0C81AD108E108BB
:100CC000F108C851DC4FECCFDF91CF91FF90EF904E
:100CD000DF90CF900895789484B5826084BD84B508
:100CE000816084BD85B5826085BD85B5816085BD27
:100CF000EEE6F0E0808181608083E1E8F0E0108240
:100D0000808182608083808181608083E0E8F0E080
:100D1000808181608083E1EBF0E08081846080836A
:100D2000E0EBF0E0808181608083EAE7F0E08081A1
:100D30008460808380818260808380818160808301
:100D40008081806880831092C1000895462F6FE0F3
:100D500082EC91E00C94BC0BCF93DF93CDB7DEB760
:100D60002E970FB6F894DEBF0FBECDBFBE01685FF1
:100D70007F4F82EC91E00E948C0B87E0FE01389659
:100D8000DE01119601900D928A95E1F729813A8151
:100D90004B815C816D817E818F8190E02E960FB6B4
:100DA000F894DEBF0FBECDBFDF91CF9108950895B7
:100DB000089508950F931F93CF93D901609570956F
:100DC00080959095FA01A40FB51FEA17FB07E9F08B
:100DD0002191622748E050E08B019C0136952795D0
:100DE0001795079560FF0BC0C901B801C0E26C27D9
:100DF000C3E87C27C8EB8C27CDEE9C2702C0C90135
:100E0000B8014150510941F7E0CF60957095809548
:100E10009095CF911F910F91089520910401222365
:100E2000E1F3FC0111A20895DC01ED91FC91DB01DD
:100E300014964D915C9115976D917C910280F38190
:100E4000E02D09940F931F93CF93C22FCC0FCC0F9B
:100E5000CC0FFA01A22FB0E09F01241B350B2A17FB
:100E60003B076CF4C8508B019C010C2E04C03695D6
:100E70002795179507950A94D2F70193EDCFCF9157
:100E80001F910F9108951F920F920FB60F92112488
:100E9000AF92BF92CF92DF92EF92FF920F931F9388
:100EA0002F933F934F935F936F937F938F939F9372
:100EB000AF93BF93EF93FF93CF93DF931F92CDB781
:100EC000DEB78091C00082FD0CC02091C60029834E
:100ED0008091C0019091C1014091BF01009721F420
:100EE0000FC08091C6009BC1442321F030E232271D
:100EF000398306C02D3731F481E08093BF018FC163
:100F000041111BC029812E3719F4009749F415C0EF
:100F10002F3721F48630910519F40FC02D3769F46D
:100F20001092BE011092BD011092BC011092BB0143
:100F30001092BA011092B90115C01092BF0187300A
:100F4000910508F06CC1FC01EC5CFF4F0C946A1435
:100F500089818E3709F063C181E090E09093C101EF
:100F60008093C0011092F4015AC189818093BC0121
:100F700022E030E03093C1012093C00190E09093D3
:100F8000F2018093F10121E030E0AE014F5F5F4F4D
:100F900060E070E0CB011DC089811092BD0180939B
:100FA000BE018091BC0181508093BC0183E090E040
:100FB0009093C1018093C0016091B5017091B60119
:100FC0008091B7019091B80121E030E0AE014F5F10
:100FD0005F4F0E94DA066093B5017093B60180936B
:100FE000B7019093B8011BC129818091BD019091F7
:100FF000BE01822B9093BE018093BD012091BC0164
:1010000021502093BC01813035E5930719F48BEA18
:1010100093E02BC08130A0E59A0719F482E693E0B3
:1010200024C08230B0E59B0719F489E193E01DC02C
:101030008330E0E69E0791F480ED92E09093BA0150
:101040008093B90181E08093F3011092180310920C
:10105000170310921603109215030BC0892B19F475
:1010600087E892E002C085EF91E09093BA01809307
:10107000B901222319F084E090E09ACF85E090E056
:101080009093C1018093C00184E08093BC0194CF10
:101090002091B9013091BA0121153105B1F11981C1
:1010A000F901EB5BFF4F80819181019665E470E06F
:1010B0000E942014D901A95BBF4F4D915C91841708
:1010C000950739F0A081B181A20FB31F1C939183C2
:1010D00080838091BC0181508093BC016091B501F7
:1010E0007091B6018091B7019091B80121E030E094
:1010F000AE014F5F5F4F0E94DA066093B5017093B7
:10110000B6018093B7019093B8018091BC01811121
:1011100086C085E090E09093C1018093C00184E097
:101120008093BC017CC08091BC0181508093BC0144
:10113000E3E0F0E0E81BF109EF54FE4F9981908362
:1011400081116DC06091B5017091B6018091B701B8
:101150009091B80124E04DEA51E00E94220786E018
:1011600090E09093C1018093C00159C08091BD016E
:101170009091BE018130F5E59F0749F5A090B90136
:10118000B090BA0123E030E085010B5B1F4F95E47E
:10119000E92EF12C650187E4C80ED11CD8018D9190
:1011A0009C910196B7010E942014F6014081518163
:1011B0008417950741F0F801A081B181AA0DBB1DEC
:1011C0001C92918380832150310941F705C08330FF
:1011D000904611F41092F301EDEAF1E0A1EBB1E0D9
:1011E00080E021919D91291301C08F5F21E0E13BB7
:1011F000F207B9F7843019F481E08093F40110927A
:10120000C1011092C0011092BE011092BD01109256
:10121000BC011092BB011092BA011092B9010F905B
:10122000DF91CF91FF91EF91BF91AF919F918F91FE
:101230007F916F915F914F913F912F911F910F91EE
:10124000FF90EF90DF90CF90BF90AF900F900FBEC8
:101250000F901F9018951F920F920FB60F921124A6
:101260002F933F934F935F936F937F938F939F93AE
:10127000AF93BF93EF93FF93209183023091840249
:1012800080918502909186022817390769F4609150
:10129000F4038DE00E94DA118091C1008F7B80936E
:1012A000C10081E080930401FF91EF91BF91AF9164
:1012B0009F918F917F916F915F914F913F912F916E
:1012C0000F900FBE0F901F9018951F920F920FB6A0
:1012D0000F9211242F933F935F936F937F938F937C
:1012E0009F93AF93BF93EF93FF932091830230912D
:1012F000840280918502909186022817390759F45B
:101300008091C1008F7D8093C1008091C100806475
:101310008093C10016C0E0918502F0918602E25CE4
:10132000FD4F20818091850290918602019665E4AF
:1013300070E00E942014909386028093850220938F
:10134000C600FF91EF91BF91AF919F918F917F91D7
:101350006F915F913F912F910F900FBE0F901F9053
:1013600018958F929F92AF92BF92CF92DF92EF9299
:10137000FF920F931F93CF93C1E0CF9385E08F939C
:1013800087E08F9383E08F9384E08F9336EC832EF6
:10139000912C42ECA42EB12C51ECC52ED12C60EC3A
:1013A000E62EF12C04EC10E025EC30E04EE352E0A8
:1013B00067E872E082EC91E00E94770E85E591E0AB
:1013C0009093C3018093C201C093F00185EF91E037
:1013D0009093ED018093EC0184EF91E09093EF0105
:1013E0008093EE011092F40187E090E0A0E0B0E07D
:1013F0008093E4019093E501A093E601B093E701A7
:101400008DE090E0A0E0B0E08093E8019093E901E6
:10141000A093EA01B093EB010F900F900F900F9003
:101420000F90CF911F910F91FF90EF90DF90CF9091
:10143000BF90AF909F908F90089540E056E960E094
:1014400070E00E948B0C61E08DE00E94A11160E0D1
:101450008DE00E94DA112091830230918402809104
:101460008502909186022817390741F481E0809324
:1014700004016091F4038DE00C94DA1108951F9338
:10148000CF93DF93EC01162F83E8860F833030F47F
:101490006DE7CE010E94350E60E26127CE01DF913B
:1014A000CF911F910C94350E4F925F926F927F9265
:1014B0008F929F92AF92BF92CF92DF92EF92FF9264
:1014C0000F931F93CF93DF9300D000D0CDB7DEB73B
:1014D0007C01B62EA72E6A0189018091AC01811191
:1014E00007C082EC91E00E941D0A81E08093AC016C
:1014F0000134110508F086C01092040161E08DE00E
:101500000E94DA1120918302309184028091850239
:10151000909186022817390759F4F70162A173A147
:1015200084A195A1611571058105910509F06DC032
:101530006EE7C7010E94350E82E0800F8983AA8280
:10154000BB8223E030E0AE014F5F5F4F60E070E0B0
:10155000CB010E94DA062B013C014E01F4E08F0E14
:10156000911CCE0101965C01F50161915F01C701FB
:101570000E943F0AA814B904B9F79801A601C30153
:10158000B2010E94DA064B015C01712C872D90E0BC
:101590008017910748F4F601E80FF91F6081C70131
:1015A0000E943F0A7394F2CF24E0AE014F5F5F4F79
:1015B000C501B4010E942207AA24A394B12CAC0E49
:1015C000BD1EF4E0AF0EB11CCE0101966C01F60118
:1015D00061916F01C7010E943F0ACA14DB04B9F789
:1015E0006FE7C7010E94350EF70166A177A180A5BC
:1015F00091A5611571058105910511F00E944506BF
:10160000C80106C08FEF9FEF03C00E94450690CF30
:101610000F900F900F900F90DF91CF911F910F912E
:10162000FF90EF90DF90CF90BF90AF909F908F9002
:101630007F906F905F904F9008954F925F926F925E
:101640007F92AF92BF92CF92DF92EF92FF920F9371
:101650001F93CF93DF93EC01F8948AA59BA5FC011F
:10166000E95BFF4F11821082329711821082ECA544
:10167000FDA510827894CE010E94540A0E9416069D
:10168000688779878A879B87ECA5FDA58081811172
:101690000FC00E941606488459846A847B846419AA
:1016A0007509860997096A157B058C059D0560F308
:1016B000ECA5FDA580818823F1F06AA57BA5FB013F
:1016C000EB5BFF4F80819181D7014D915C91841735
:1016D000950710F440815181C8010E94B914EAA510
:1016E000FBA5EB5BFF4F80819181F70191838083A4
:1016F00080E090E002C08FEF9FEFDF91CF911F91CC
:101700000F91FF90EF90DF90CF90BF90AF907F90C0
:101710006F905F904F900895AF92BF92CF92DF92FB
:10172000EF92FF920F931F93CF93DF9300D0CDB72B
:10173000DEB727E030E03A83298304E6A02EB12CFF
:10174000C12CD12C9E012F5F3F4F79018B0120E0EE
:1017500030E040E050E060E170E20E941D0B0F902D
:101760000F90DF91CF911F910F91FF90EF90DF903D
:10177000CF90BF90AF900895CF93DF9300D0CDB7B7
:10178000DEB769834A8322E030E0AE014F5F5F4FEE
:1017900060E470E20E94540A0F900F90DF91CF91A5
:1017A0000895CF93DF931F92CDB7DEB7698321E011
:1017B00030E0AE014F5F5F4F60E070E00E94540A7E
:1017C00081E090E00F90DF91CF910895CF92DF926A
:1017D000EF92FF920F931F93CF93DF936C017B01E6
:1017E000EA016115710589F1209779F141345105BC
:1017F000F0F040E050E00FE310E09801241B350BBF
:101800004E0D5F1D60E070E0C6010E94540A0C1787
:101810001D07F1F09801205C3F4FC217D30708F471
:101820009E01C217D307B0F0A8018901E6CF9A0143
:10183000AB0160E070E0DF91CF911F910F91FF90BD
:10184000EF90DF90CF900C94540A80E090E003C0BA
:10185000C80101C0CE01DF91CF911F910F91FF9080
:10186000EF90DF90CF900895CF92DF92EF92FF92AA
:101870000F931F93CF93DF93CDB7DEB7C054D10939
:101880000FB6F894DEBF0FBECDBF6C0161157105B8
:1018900081F17B0100E010E0F70184919801882339
:1018A000F1F02F5F3F4FE1E0F0E0EC0FFD1FE00FA4
:1018B000F11F80832034310529F08FEFE81AF80AF0
:1018C0008901EACF20E430E0AE014F5F5F4F60E076
:1018D00070E0C6010E94540A20E030E0EECFAE0175
:1018E0004F5F5F4F60E070E0C6010E94540AC8017C
:1018F00002C080E090E0C05CDF4F0FB6F894DEBF1E
:101900000FBECDBFDF91CF911F910F91FF90EF9050
:10191000DF90CF900895CF92DF92EF92FF92CF9316
:10192000DF93EC016A017B01EC89FD8981E090E0A5
:1019300008A002C0880F991F0A94E2F7808360E82C
:1019400074E88EE190E0A70196010E9448142150AE
:101950003109410951095695479537952795211524
:1019600080E1380798F0EC89FD89108260E472E428
:101970008FE090E0A70196010E94481421503109A0
:10198000410951095695479537952795E889F98971
:101990003083EA89FB89208319A2EE89FF8940817F
:1019A00081E090E09C010C8C02C0220F331F0A944E
:1019B000E2F7422B4083EE89FF8940819C010D8C28
:1019C00002C0220F331F0A94E2F7422B4083EE89B4
:1019D000FF8940819C010E8C02C0220F331F0A94A4
:1019E000E2F7422B4083EE89FF8920810F8C02C0F1
:1019F000880F991F0A94E2F7809582238083DF91F4
:101A0000CF91FF90EF90DF90CF900895BF92CF924B
:101A1000DF92EF92FF92CF93DF93EC016A017B019B
:101A2000B22EEC89FD8981E090E008A002C0880F09
:101A3000991F0A94E2F7808360E874E88EE190E0F1
:101A4000A70196010E94481421503109410951090A
:101A50005695479537952795211580E1380798F0D9
:101A6000EC89FD89108260E472E48FE090E0A701C8
:101A700096010E9448142150310941095109569597
:101A8000479537952795E889F9893083EA89FB8955
:101A90002083E88DF98DB082EE89FF89408181E055
:101AA00090E09C010C8C02C0220F331F0A94E2F7D5
:101AB000422B4083EE89FF8940819C010D8C02C03E
:101AC000220F331F0A94E2F7422B4083EE89FF89ED
:101AD00040819C010E8C02C0220F331F0A94E2F752
:101AE000422B4083EE89FF8920810F8C02C0880F32
:101AF000991F0A94E2F7809582238083DF91CF912A
:101B0000FF90EF90DF90CF90BF900895CF93DF9339
:101B1000FC0186859785DC01AB5BBF4FEC01C95B9F
:101B2000DF4F4D915C9111972881398142175307FE
:101B3000C1F7A689B7894C9181E090E09C01048CA3
:101B400002C0220F331F0A94E2F7209524232C931E
:101B5000A689B7894C919C01058C02C0220F331FC6
:101B60000A94E2F7209524232C93A689B7894C91F7
:101B70009C01068C02C0220F331F0A94E2F72095C5
:101B800024232C93A689B7892C91078C02C0880F37
:101B9000991F0A94E2F7809582238C93848595851A
:101BA000FC01E95BFF4F2081318132973183208333
:101BB000DF91CF910895FC0124853585F901EB5B18
:101BC000FF4F808191813296208131818B5B9F4FC5
:101BD000821B930B65E470E00E9420140895FC01C1
:101BE00084859585FC01EB5BFF4F408151813296E6
:101BF000208131814217530741F00190F081E02D9F
:101C0000E80FF91F808190E008958FEF9FEF08950E
:101C1000FC0184859585FC01EB5BFF4F4081518180
:101C20003296208131814217530789F0A081B1811A
:101C3000A80FB91F2C9180819181019665E470E015
:101C40000E94201491838083822F90E008958FEF6B
:101C50009FEF0895FC0181A1882329F0A489B5890B
:101C60008C9186FFFBCF11A208951F93CF93DF9332
:101C7000FC01162F26853785E901CB5BDF4F888174
:101C80009981019665E470E00E942014D901A95B56
:101C9000BF4F4D915C91119784179507D1F3A8819F
:101CA000B981A20FB31F1C93A685B785AB5BBF4F4D
:101CB00011969C938E93A689B7892C9181E090E030
:101CC000078C02C0880F991F0A94E2F7282B2C93E7
:101CD00081E081A30488F589E02D80818064808380
:101CE00081E090E0DF91CF911F91089508958F9248
:101CF0009F92AF92BF92CF92DF92EF92FF920F939B
:101D00001F93CF93DF93CDB7DEB7FC01138212820E
:101D100088EE93E0A0E0B0E084839583A683B78348
:101D20008FE691E091838083758764875787468724
:101D3000318B208B138B028BF58AE48AD78AC68A73
:101D4000B18EA08E938E828E8F85848F8889858FA9
:101D50008989868F8A89878F8B8980A3DF91CF912C
:101D60001F910F91FF90EF90DF90CF90BF90AF90B9
:101D70009F908F900895CF92DF92EF92FF920F93F2
:101D80001F93CF93DF936C017A01EB01E60EF71EF0
:101D900000E010E0CE15DF0561F06991D601ED910C
:101DA000FC910190F081E02DC6010995080F191FE3
:101DB000F1CFC801DF91CF911F910F91FF90EF906C
:101DC000DF90CF900895EF92FF920F931F93CF93E0
:101DD000DF938C01FB01C0E0D0E064917F018FEFC5
:101DE000E81AF80A662361F0D801ED91FC910190A0
:101DF000F081E02DC8010995C80FD91FF701EDCF7B
:101E0000CE01DF91CF911F910F91FF90EF90089538
:101E1000AF92BF92CF92DF92EF92FF920F931F93F8
:101E2000CF93DF937C016B01C0E0D0E000E010E0D5
:101E3000D60114968D919C911597C817D90788F4EF
:101E4000D701ED91FC91A080B180BE01C6010E9436
:101E5000F210682FC701F5010995080F191F219687
:101E6000E7CFC801DF91CF911F910F91FF90EF90C5
:101E7000DF90CF90BF90AF900895DC01ED91FC9181
:101E80000190F081E02D09940F931F93CF93DF937E
:101E9000EC016DE00E943D0F8C016AE0CE010E94D2
:101EA0003D0F800F911FDF91CF911F910F910895EA
:101EB0000F931F93CF93DF93EC01E881F9810680A4
:101EC000F781E02D09958C01CE010E94440F800F0F
:101ED000911FDF91CF911F910F910895FC01808197
:101EE00091810C94A812CF93DF93EC0188819981A2
:101EF000009711F00E94A812198218821D821C827C
:101F00001B821A82DF91CF9108950F931F93CF9375
:101F1000DF93EC018B016F5F7F4F888199810E9475
:101F20003713009731F0998388831B830A8381E0FC
:101F300001C080E0DF91CF911F910F910895CF9361
:101F4000DF93EC0188819981892B29F08A819B811B
:101F50008617970760F4CE010E94850F882341F011
:101F60008C819D81892B19F4E881F981108281E0AF
:101F7000DF91CF910895EF92FF920F931F93CF932C
:101F8000DF93EC017B018A01BA010E949F0F81114E
:101F900004C0CE010E94730F07C01D830C83B701DC
:101FA000888199810E94C214CE01DF91CF911F9147
:101FB0000F91FF90EF900895FC011182108213821F
:101FC00012821582148216826115710559F0FB0187
:101FD00001900020E9F7AF0141505109461B570B12
:101FE0000C94BB0F0895CF93DF93EC01FB01861790
:101FF000970761F0608171816115710529F0448155
:1020000055810E94BB0F02C00E94730FCE01DF9169
:10201000CF910895FC0111821082138212821582E1
:10202000148216820C94F30FCF93DF93EC016115A9
:10203000710561F0FB0101900020E9F7AF0141500B
:102040005109461B570B0E94BB0F02C00E94730F21
:10205000CE01DF91CF9108950F931F93CF93DF931C
:10206000CDB7DEB762970FB6F894DEBF0FBECDBF17
:102070008C01CB01F8011182108213821282158229
:102080001482168250E0BE016F5F7F4F0E94C91418
:10209000BE016F5F7F4FC8010E94141062960FB699
:1020A000F894DEBF0FBECDBFDF91CF911F910F918E
:1020B0000895EF92FF920F931F93CF93DF93EC015C
:1020C0007B010C811D816115710511F480E016C042
:1020D0004115510591F0040F151FB8010E949F0F83
:1020E0008823A1F3288139818C819D81B701820FDA
:1020F000931F0E94C2141D830C8381E0DF91CF9156
:102100001F910F91FF90EF900895EF92FF920F9320
:102110001F93CF93DF93CDB7DEB727970FB6F89411
:10212000DEBF0FBECDBF7C01CB014AE050E08E0187
:102130000F5F1F4FB8010E94C914F80101900020E1
:10214000E9F7AF0141505109401B510BB801C701DC
:102150000E94591027960FB6F894DEBF0FBECDBF70
:10216000DF91CF911F910F91FF90EF900895CF9342
:10217000DF93EC01FB0144815581608171810E94F4
:102180005910811103C0CE010E94730FCE01DF915F
:10219000CF910895CF93DF93EC016115710569F03C
:1021A000FB0101900020E9F7AF0141505109461BA6
:1021B000570B0E945910811103C0CE010E94730F6A
:1021C000CE01DF91CF910895CF93DF93EC010E9470
:1021D0008510811103C0CE010E94730FCE01DF91E3
:1021E000CF910895FC01248135816217730748F46B
:1021F00080819181009729F0FC01E60FF71F808113
:10220000089580E00895FC0180819181009711F08C
:102210000C94921460E070E0CB0108950E946B066C
:102220008CB58F7B8CBD0E948E00C6E7DEE00E94DD
:10223000AD002097E1F30E94760EF9CF1F920F9226
:102240000FB60F9211242F933F934F935F936F9389
:102250007F938F939F93AF93BF93EF93FF9380915F
:10226000F5039091F603892B29F0E091F503F091A5
:10227000F6030995FF91EF91BF91AF919F918F91D7
:102280007F916F915F914F913F912F910F900FBE72
:102290000F901F9018951F920F920FB60F92112456
:1022A0002F933F934F935F936F937F938F939F935E
:1022B000AF93BF93EF93FF938091F7039091F8034F
:1022C000892B29F0E091F703F091F8030995FF912C
:1022D000EF91BF91AF919F918F917F916F915F919E
:1022E0004F913F912F910F900FBE0F901F90189517
:1022F000833081F028F4813099F08230A1F0089584
:102300008630A9F08730B9F08430D1F48091800014
:102310008F7D03C0809180008F7780938000089527
:1023200084B58F7702C084B58F7D84BD0895809178
:10233000B0008F7703C08091B0008F7D8093B00094
:102340000895CF93DF9390E0FC01E657FF4F24916F
:10235000FC01E256FF4F8491882349F190E0880FF9
:10236000991FFC01E454FF4FA591B4918E549F4FE7
:10237000FC01C591D4919FB7611108C0F8948C916C
:10238000209582238C93888182230AC0623051F485
:10239000F8948C91322F309583238C938881822BF3
:1023A000888304C0F8948C91822B8C939FBFDF911B
:1023B000CF9108950F931F93CF93DF931F92CDB7C3
:1023C000DEB7282F30E0F901EA58FF4F8491F90178
:1023D000E657FF4F1491F901E256FF4F0491002395
:1023E000C9F0882321F069830E9478116981E02F68
:1023F000F0E0EE0FFF1FEE54FF4FA591B4919FB791
:10240000F8948C91611103C01095812301C0812B38
:102410008C939FBF0F90DF91CF911F910F910895E3
:10242000CF93DF938230910510F482E090E0E09149
:10243000FB03F091FC0320E030E0A0E0B0E0309737
:1024400039F14081518148175907B8F048175907A9
:1024500071F482819381109729F013969C938E9347
:1024600012972CC09093FC038093FB0327C0211587
:10247000310531F04217530718F0A901DB0101C003
:10248000EF019A01BD01DF010280F381E02DD7CF7A
:1024900021153105F9F0281B390B2430310580F462
:1024A0008A819B816115710521F0FB0193838283F1
:1024B00004C09093FC038093FB03FE01329644C05A
:1024C000FE01E20FF31F819391932250310939836A
:1024D00028833AC02091F9033091FA03232B41F469
:1024E00020910701309108013093FA032093F903FA
:1024F00020910501309106012115310541F42DB7D8
:102500003EB74091090150910A01241B350BE0911F
:10251000F903F091FA03E217F307A0F42E1B3F0B27
:102520002817390778F0AC014E5F5F4F2417350745
:1025300048F04E0F5F1F5093FA034093F9038193C5
:10254000919302C0E0E0F0E0CF01DF91CF910895D8
:10255000CF93DF93009709F487C0FC013297138271
:102560001282C091FB03D091FC03209781F420815B
:102570003181280F391F8091F9039091FA03821756
:10258000930779F5F093FA03E093F9036DC0DE0148
:1025900020E030E0AE17BF0750F412964D915C91E9
:1025A00013979D014115510509F1DA01F3CFB3836A
:1025B000A28340815181840F951F8A179B0771F474
:1025C0008D919C911197840F951F02969183808322
:1025D00012968D919C9113979383828321153105D7
:1025E00029F4F093FC03E093FB033EC0D90113965A
:1025F000FC93EE9312974D915D91A40FB51FEA17CE
:10260000FB0779F480819181840F951F0296D9018F
:1026100011969C938E938281938113969C938E93B3
:102620001297E0E0F0E08A819B81009719F0FE01AB
:10263000EC01F9CFCE01029628813981820F931FD8
:102640002091F9033091FA032817390769F430977C
:1026500029F41092FC031092FB0302C01382128231
:10266000D093FA03C093F903DF91CF9108956F924D
:102670007F928F929F92AF92BF92CF92DF92EF9212
:10268000FF920F931F93CF93DF93EC01CB01209721
:1026900081F4DF91CF911F910F91FF90EF90DF9028
:1026A000CF90BF90AF909F908F907F906F900C9441
:1026B0001012FE01E60FF71F9E0122503109E217AA
:1026C000F30708F4ACC0D9010D911C9111970617BE
:1026D0001707B8F00530110508F49FC0A801445051
:1026E00051094617570708F498C002501109061BF4
:1026F000170B019311936D937C93CF010E94A81245
:102700008CC05B01A01AB10A4E01800E911EA091EF
:10271000FB03B091FC03612C712C60E070E010971A
:1027200009F449C0A815B905C9F5ED90FC901197B9
:10273000670142E0C40ED11CCA14DB0478F14701E2
:102740008A189B08640142E0C40ED11C1296BC900A
:1027500012971396AC91B5E0CB16D10440F0B2823B
:10276000A38391828082D9018D939C9309C00E5FCF
:102770001F4F0E0D1F1DF90111830083EB2DFA2F42
:102780006115710531F0DB011396FC93EE931297FE
:1027900044C0F093FC03E093FB033FC06D917C9138
:1027A00011976616770608F43B01BD0112960D904D
:1027B000BC91A02DB4CF6091F9037091FA03681514
:1027C0007905E9F468167906D0F440910501509135
:1027D00006014115510541F44DB75EB760910901FD
:1027E00070910A01461B570BE417F507C0F4F093EC
:1027F000FA03E093F903F901918380830EC00E94EC
:1028000010127C01009759F0A801BE010E94B91472
:10281000CE010E94A812C70104C0CE0102C080E010
:1028200090E0DF91CF911F910F91FF90EF90DF909B
:10283000CF90BF90AF909F908F907F906F900895B2
:10284000AA1BBB1B51E107C0AA1FBB1FA617B707D6
:1028500010F0A61BB70B881F991F5A95A9F78095F2
:102860009095BC01CD01089597FB072E16F40094B6
:1028700007D077FD09D00E94201407FC05D03EF454
:10288000909581959F4F0895709561957F4F08951C
:10289000A1E21A2EAA1BBB1BFD010DC0AA1FBB1F64
:1028A000EE1FFF1FA217B307E407F50720F0A21BD6
:1028B000B30BE40BF50B661F771F881F991F1A9443
:1028C00069F760957095809590959B01AC01BD016D
:1028D000CF010895EE0FFF1F0590F491E02D0994AC
:1028E000A29FB001B39FC001A39F700D811D112451
:1028F000911DB29F700D811D1124911D08950E949C
:102900007014A59F900DB49F900DA49F800D911DF4
:1029100011240895B7FF0C947F140E947F14821B2A
:10292000930B08951F93FC0199278827BC01E89415
:1029300011911032E9F3193010F01E30C8F31B3238
:1029400051F01D3249F4689406C00E94DF14610FF3
:10295000711D811D911D119110531A30B0F33EF479
:1029600090958095709561957F4F8F4F9F4F1F91E8
:102970000895FB01DC0102C001900D9241505040CE
:10298000D8F70895FB01DC0101900D920020E1F7DA
:1029900008954532510520F4423010F00C94D414BF
:1029A000FB011082CB010895BB274A3031F49923F3
:1029B00022F4BDE2909581959F4F0C94F514592F08
:1029C000482F372F262F660F771F881F991F660FF6
:1029D000771F881F991F620F731F841F951F660F33
:1029E000771F881F991F0895BB27FB015527AA272A
:1029F000880F991FAA1FA41710F0A41B839550518C
:102A0000B9F7A05DAA3308F0A95DA193009779F703
:102A1000B111B1931192CB010C940E15DC01FC01A4
:102A2000672F71917723E1F7329704C07C916D9302
:102A300070836291AE17BF07C8F30895F894FFCF73
:102A40002C010000010000FD038000583A2000091D
:102A5000593A2000095A3A20005472656D6F72216C
:102A60000054696D652031005472656D6F72206588
:102A70006E6473210054696D652032004475726183
:102A800074696F6E001F1C1F1E1F1E1F1F1E1F1E3E
:102A90001F00000000D10BE60B340C1407DB0D08FF
:102AA0000EEF0D0D07D706D806D906000000003539
:102AB0000EBB0EE30E080FDB0D080EEF0D2A0E8B7A
:062AC0000C060D860D005E
:00000001FF
